{"abi":[{"type":"constructor","inputs":[],"stateMutability":"nonpayable"},{"type":"function","name":"addVerifier","inputs":[{"name":"verifier","type":"address","internalType":"address"}],"outputs":[],"stateMutability":"nonpayable"},{"type":"function","name":"addressToIdentity","inputs":[{"name":"","type":"address","internalType":"address"}],"outputs":[{"name":"","type":"uint256","internalType":"uint256"}],"stateMutability":"view"},{"type":"function","name":"admin","inputs":[],"outputs":[{"name":"","type":"address","internalType":"address"}],"stateMutability":"view"},{"type":"function","name":"getAttribute","inputs":[{"name":"identityId","type":"uint256","internalType":"uint256"},{"name":"key","type":"bytes32","internalType":"bytes32"}],"outputs":[{"name":"","type":"bytes","internalType":"bytes"}],"stateMutability":"view"},{"type":"function","name":"getIdentity","inputs":[{"name":"identityId","type":"uint256","internalType":"uint256"}],"outputs":[{"name":"","type":"tuple","internalType":"struct ERC8004IdentityRegistry.IdentityView","components":[{"name":"owner","type":"address","internalType":"address"},{"name":"identityHash","type":"bytes32","internalType":"bytes32"},{"name":"registeredAt","type":"uint256","internalType":"uint256"},{"name":"verified","type":"bool","internalType":"bool"},{"name":"verificationLevel","type":"uint256","internalType":"uint256"}]}],"stateMutability":"view"},{"type":"function","name":"getIdentityByAddress","inputs":[{"name":"owner","type":"address","internalType":"address"}],"outputs":[{"name":"identityId","type":"uint256","internalType":"uint256"},{"name":"identity","type":"tuple","internalType":"struct ERC8004IdentityRegistry.IdentityView","components":[{"name":"owner","type":"address","internalType":"address"},{"name":"identityHash","type":"bytes32","internalType":"bytes32"},{"name":"registeredAt","type":"uint256","internalType":"uint256"},{"name":"verified","type":"bool","internalType":"bool"},{"name":"verificationLevel","type":"uint256","internalType":"uint256"}]}],"stateMutability":"view"},{"type":"function","name":"isVerified","inputs":[{"name":"owner","type":"address","internalType":"address"},{"name":"minLevel","type":"uint256","internalType":"uint256"}],"outputs":[{"name":"","type":"bool","internalType":"bool"}],"stateMutability":"view"},{"type":"function","name":"nextIdentityId","inputs":[],"outputs":[{"name":"","type":"uint256","internalType":"uint256"}],"stateMutability":"view"},{"type":"function","name":"register","inputs":[{"name":"identityHash","type":"bytes32","internalType":"bytes32"}],"outputs":[{"name":"identityId","type":"uint256","internalType":"uint256"}],"stateMutability":"nonpayable"},{"type":"function","name":"removeVerifier","inputs":[{"name":"verifier","type":"address","internalType":"address"}],"outputs":[],"stateMutability":"nonpayable"},{"type":"function","name":"revokeVerification","inputs":[{"name":"identityId","type":"uint256","internalType":"uint256"}],"outputs":[],"stateMutability":"nonpayable"},{"type":"function","name":"setAdmin","inputs":[{"name":"newAdmin","type":"address","internalType":"address"}],"outputs":[],"stateMutability":"nonpayable"},{"type":"function","name":"setAttribute","inputs":[{"name":"key","type":"bytes32","internalType":"bytes32"},{"name":"value","type":"bytes","internalType":"bytes"}],"outputs":[],"stateMutability":"nonpayable"},{"type":"function","name":"updateIdentity","inputs":[{"name":"newHash","type":"bytes32","internalType":"bytes32"}],"outputs":[],"stateMutability":"nonpayable"},{"type":"function","name":"verifiers","inputs":[{"name":"","type":"address","internalType":"address"}],"outputs":[{"name":"","type":"bool","internalType":"bool"}],"stateMutability":"view"},{"type":"function","name":"verify","inputs":[{"name":"identityId","type":"uint256","internalType":"uint256"},{"name":"level","type":"uint256","internalType":"uint256"}],"outputs":[],"stateMutability":"nonpayable"},{"type":"event","name":"AttributeSet","inputs":[{"name":"identityId","type":"uint256","indexed":true,"internalType":"uint256"},{"name":"key","type":"bytes32","indexed":true,"internalType":"bytes32"}],"anonymous":false},{"type":"event","name":"IdentityRegistered","inputs":[{"name":"identityId","type":"uint256","indexed":true,"internalType":"uint256"},{"name":"owner","type":"address","indexed":true,"internalType":"address"},{"name":"identityHash","type":"bytes32","indexed":false,"internalType":"bytes32"}],"anonymous":false},{"type":"event","name":"IdentityUpdated","inputs":[{"name":"identityId","type":"uint256","indexed":true,"internalType":"uint256"},{"name":"newHash","type":"bytes32","indexed":false,"internalType":"bytes32"}],"anonymous":false},{"type":"event","name":"IdentityVerified","inputs":[{"name":"identityId","type":"uint256","indexed":true,"internalType":"uint256"},{"name":"verifier","type":"address","indexed":true,"internalType":"address"},{"name":"level","type":"uint256","indexed":false,"internalType":"uint256"}],"anonymous":false},{"type":"event","name":"VerifierAdded","inputs":[{"name":"verifier","type":"address","indexed":true,"internalType":"address"}],"anonymous":false},{"type":"event","name":"VerifierRemoved","inputs":[{"name":"verifier","type":"address","indexed":true,"internalType":"address"}],"anonymous":false},{"type":"error","name":"AlreadyRegistered","inputs":[]},{"type":"error","name":"InvalidLevel","inputs":[]},{"type":"error","name":"NotAdmin","inputs":[]},{"type":"error","name":"NotOwner","inputs":[]},{"type":"error","name":"NotRegistered","inputs":[]},{"type":"error","name":"NotVerifier","inputs":[]}],"bytecode":{"object":"0x608060405260016003553480156013575f5ffd5b50600480546001600160a01b031916339081179091555f908152600260205260409020805460ff19166001179055610d2e8061004e5f395ff3fe608060405234801561000f575f5ffd5b50600436106100fb575f3560e01c806385e3f05811610093578063e1fa8e8411610063578063e1fa8e8414610227578063eb4e9b091461023a578063f2f5cd1d14610259578063f851a4401461027a575f5ffd5b806385e3f058146101ca5780639000b3d6146101ea578063c09624b0146101fd578063ca2dfd0a14610214575f5ffd5b806354dea7f6116100ce57806354dea7f61461016257806362c3fc2e146101825780636c82448714610195578063704b6c02146101b7575f5ffd5b80630cba3a2c146100ff5780631571f0c6146101145780631a2097761461012757806341161b101461014f575b5f5ffd5b61011261010d3660046109d6565b6102a5565b005b610112610122366004610a4d565b61032c565b61013a610135366004610a7f565b6103fe565b60405190151581526020015b60405180910390f35b61011261015d366004610aa7565b610456565b610175610170366004610aa7565b610561565b6040516101469190610ac7565b610112610190366004610a4d565b61060d565b61013a6101a3366004610afc565b60026020525f908152604090205460ff1681565b6101126101c5366004610afc565b610688565b6101dd6101d8366004610a4d565b6106d5565b6040516101469190610b54565b6101126101f8366004610afc565b610767565b61020660035481565b604051908152602001610146565b610112610222366004610afc565b6107dd565b610206610235366004610a4d565b610850565b610206610248366004610afc565b60016020525f908152604090205481565b61026c610267366004610afc565b610919565b604051610146929190610b62565b60045461028d906001600160a01b031681565b6040516001600160a01b039091168152602001610146565b335f90815260016020526040812054908190036102d55760405163aba4733960e01b815260040160405180910390fd5b5f8181526020818152604080832087845260050190915290206102f9838583610c19565b50604051849082907f6a226fbfd8bd6bcde532277cfe90c14da933ca484b241b6555b771f6b513b5cb905f90a350505050565b335f9081526002602052604090205460ff1615801561035657506004546001600160a01b03163314155b15610374576040516312331aab60e11b815260040160405180910390fd5b5f818152602081905260409020546001600160a01b03166103a85760405163aba4733960e01b815260040160405180910390fd5b5f8181526020818152604080832060038101805460ff1916905560040183905551918252339183917f0c8fb91c035460e77a706805907d40a549c7be443bace051edf7ed20b62936a1910160405180910390a350565b6001600160a01b0382165f90815260016020526040812054808203610426575f915050610450565b5f818152602081905260409020600381015460ff16801561044b575083816004015410155b925050505b92915050565b335f9081526002602052604090205460ff1615801561048057506004546001600160a01b03163314155b1561049e576040516312331aab60e11b815260040160405180910390fd5b8015806104ab5750600381115b156104c95760405163d1459f7960e01b815260040160405180910390fd5b5f828152602081905260409020546001600160a01b03166104fd5760405163aba4733960e01b815260040160405180910390fd5b5f828152602081905260409081902060038101805460ff1916600117905560040182905551339083907f0c8fb91c035460e77a706805907d40a549c7be443bace051edf7ed20b62936a1906105559085815260200190565b60405180910390a35050565b5f82815260208181526040808320848452600501909152902080546060919061058990610b8a565b80601f01602080910402602001604051908101604052809291908181526020018280546105b590610b8a565b80156106005780601f106105d757610100808354040283529160200191610600565b820191905f5260205f20905b8154815290600101906020018083116105e357829003601f168201915b5050505050905092915050565b335f908152600160205260408120549081900361063d5760405163aba4733960e01b815260040160405180910390fd5b5f8181526020818152604091829020600101849055905183815282917f7c5d2d1361aa6211eea0873f643e3c6986197277e5a14ddb5e2fd4908f4872bf910160405180910390a25050565b6004546001600160a01b031633146106b357604051637bfa4b9f60e01b815260040160405180910390fd5b600480546001600160a01b0319166001600160a01b0392909216919091179055565b61070d6040518060a001604052805f6001600160a01b031681526020015f81526020015f81526020015f151581526020015f81525090565b505f9081526020818152604091829020825160a08101845281546001600160a01b03168152600182015492810192909252600281015492820192909252600382015460ff1615156060820152600490910154608082015290565b6004546001600160a01b0316331461079257604051637bfa4b9f60e01b815260040160405180910390fd5b6001600160a01b0381165f81815260026020526040808220805460ff19166001179055517f6d05492139c5ea989514a5d2150c028041e5c087e2a39967f67dc7d2655adb819190a250565b6004546001600160a01b0316331461080857604051637bfa4b9f60e01b815260040160405180910390fd5b6001600160a01b0381165f81815260026020526040808220805460ff19169055517f44a3cd4eb5cc5748f6169df057b1cb2ae4c383e87cd94663c430e095d4cba4249190a250565b335f908152600160205260408120541561087d57604051630ea075bf60e21b815260040160405180910390fd5b60038054905f61088c83610cd4565b909155505f8181526020818152604080832080546001600160a01b031916339081178255600180830189905542600284015560038301805460ff191690556004830186905581865284529382902085905590518681529394509284917f880c2cdc6a0751ea14844fceb928efb7936b635b10b87dfd444101253cea0532910160405180910390a350919050565b6040805160a0810182525f808252602080830182905282840182905260608301829052608083018290526001600160a01b03851682526001905291822054918290036109785760405163aba4733960e01b815260040160405180910390fd5b505f8181526020818152604091829020825160a08101845281546001600160a01b03168152600182015492810192909252600281015492820192909252600382015460ff161515606082015260049091015460808201529092909150565b5f5f5f604084860312156109e8575f5ffd5b83359250602084013567ffffffffffffffff811115610a05575f5ffd5b8401601f81018613610a15575f5ffd5b803567ffffffffffffffff811115610a2b575f5ffd5b866020828401011115610a3c575f5ffd5b939660209190910195509293505050565b5f60208284031215610a5d575f5ffd5b5035919050565b80356001600160a01b0381168114610a7a575f5ffd5b919050565b5f5f60408385031215610a90575f5ffd5b610a9983610a64565b946020939093013593505050565b5f5f60408385031215610ab8575f5ffd5b50508035926020909101359150565b602081525f82518060208401528060208501604085015e5f604082850101526040601f19601f83011684010191505092915050565b5f60208284031215610b0c575f5ffd5b610b1582610a64565b9392505050565b80516001600160a01b031682526020808201519083015260408082015190830152606080820151151590830152608090810151910152565b60a081016104508284610b1c565b82815260c08101610b156020830184610b1c565b634e487b7160e01b5f52604160045260245ffd5b600181811c90821680610b9e57607f821691505b602082108103610bbc57634e487b7160e01b5f52602260045260245ffd5b50919050565b601f821115610c145782821115610c1457805f5260205f20601f840160051c6020851015610bed57505f5b90810190601f840160051c035f5b81811015610c10575f83820155600101610bfb565b5050505b505050565b67ffffffffffffffff831115610c3157610c31610b76565b610c4583610c3f8354610b8a565b83610bc2565b5f601f841160018114610c76575f8515610c5f5750838201355b5f19600387901b1c1916600186901b178355610ccd565b5f83815260208120601f198716915b82811015610ca55786850135825560209485019460019092019101610c85565b5086821015610cc1575f1960f88860031b161c19848701351681555b505060018560011b0183555b5050505050565b5f60018201610cf157634e487b7160e01b5f52601160045260245ffd5b506001019056fea26469706673582212200b23bc15d00b5a73ec76fadd208db9e19005d0c59b6499428e926109bc2885e664736f6c63430008210033","linkReferences":{}},"methodIdentifiers":{"addVerifier(address)":"9000b3d6","addressToIdentity(address)":"eb4e9b09","admin()":"f851a440","getAttribute(uint256,bytes32)":"54dea7f6","getIdentity(uint256)":"85e3f058","getIdentityByAddress(address)":"f2f5cd1d","isVerified(address,uint256)":"1a209776","nextIdentityId()":"c09624b0","register(bytes32)":"e1fa8e84","removeVerifier(address)":"ca2dfd0a","revokeVerification(uint256)":"1571f0c6","setAdmin(address)":"704b6c02","setAttribute(bytes32,bytes)":"0cba3a2c","updateIdentity(bytes32)":"62c3fc2e","verifiers(address)":"6c824487","verify(uint256,uint256)":"41161b10"},"id":5}