{"abi":[{"type":"function","name":"buyShares","inputs":[{"name":"marketId","type":"bytes32","internalType":"bytes32"},{"name":"outcome","type":"bool","internalType":"bool"},{"name":"shares","type":"uint256","internalType":"uint256"},{"name":"maxCost","type":"uint256","internalType":"uint256"}],"outputs":[],"stateMutability":"nonpayable"},{"type":"function","name":"calculateCost","inputs":[{"name":"marketId","type":"bytes32","internalType":"bytes32"},{"name":"outcome","type":"bool","internalType":"bool"},{"name":"shares","type":"uint256","internalType":"uint256"}],"outputs":[{"name":"cost","type":"uint256","internalType":"uint256"}],"stateMutability":"view"},{"type":"function","name":"calculateSellPayout","inputs":[{"name":"marketId","type":"bytes32","internalType":"bytes32"},{"name":"outcome","type":"bool","internalType":"bool"},{"name":"shares","type":"uint256","internalType":"uint256"}],"outputs":[{"name":"","type":"uint256","internalType":"uint256"}],"stateMutability":"view"},{"type":"function","name":"claimWinnings","inputs":[{"name":"marketId","type":"bytes32","internalType":"bytes32"}],"outputs":[{"name":"payout","type":"uint256","internalType":"uint256"}],"stateMutability":"nonpayable"},{"type":"function","name":"createMarket","inputs":[{"name":"marketId","type":"bytes32","internalType":"bytes32"},{"name":"question","type":"string","internalType":"string"},{"name":"liquidityParameter","type":"uint256","internalType":"uint256"},{"name":"endTime","type":"uint256","internalType":"uint256"},{"name":"oracle","type":"address","internalType":"address"}],"outputs":[],"stateMutability":"nonpayable"},{"type":"function","name":"deposit","inputs":[],"outputs":[],"stateMutability":"payable"},{"type":"function","name":"getBalance","inputs":[{"name":"user","type":"address","internalType":"address"}],"outputs":[{"name":"","type":"uint256","internalType":"uint256"}],"stateMutability":"view"},{"type":"function","name":"getMarket","inputs":[{"name":"marketId","type":"bytes32","internalType":"bytes32"}],"outputs":[{"name":"","type":"tuple","internalType":"struct LibPredictionMarket.Market","components":[{"name":"marketId","type":"bytes32","internalType":"bytes32"},{"name":"question","type":"string","internalType":"string"},{"name":"yesShares","type":"uint256","internalType":"uint256"},{"name":"noShares","type":"uint256","internalType":"uint256"},{"name":"liquidityParameter","type":"uint256","internalType":"uint256"},{"name":"totalVolume","type":"uint256","internalType":"uint256"},{"name":"createdAt","type":"uint256","internalType":"uint256"},{"name":"endTime","type":"uint256","internalType":"uint256"},{"name":"status","type":"uint8","internalType":"enum LibPredictionMarket.MarketStatus"},{"name":"outcome","type":"bool","internalType":"bool"},{"name":"creator","type":"address","internalType":"address"},{"name":"oracle","type":"address","internalType":"address"}]}],"stateMutability":"view"},{"type":"function","name":"getMarketIds","inputs":[],"outputs":[{"name":"","type":"bytes32[]","internalType":"bytes32[]"}],"stateMutability":"view"},{"type":"function","name":"getMarketPrices","inputs":[{"name":"marketId","type":"bytes32","internalType":"bytes32"}],"outputs":[{"name":"yesPrice","type":"uint256","internalType":"uint256"},{"name":"noPrice","type":"uint256","internalType":"uint256"}],"stateMutability":"view"},{"type":"function","name":"getMarketShares","inputs":[{"name":"marketId","type":"bytes32","internalType":"bytes32"}],"outputs":[{"name":"yesShares","type":"uint256","internalType":"uint256"},{"name":"noShares","type":"uint256","internalType":"uint256"}],"stateMutability":"view"},{"type":"function","name":"getPosition","inputs":[{"name":"marketId","type":"bytes32","internalType":"bytes32"},{"name":"trader","type":"address","internalType":"address"}],"outputs":[{"name":"","type":"tuple","internalType":"struct LibPredictionMarket.Position","components":[{"name":"yesShares","type":"uint256","internalType":"uint256"},{"name":"noShares","type":"uint256","internalType":"uint256"},{"name":"totalSpent","type":"uint256","internalType":"uint256"},{"name":"totalReceived","type":"uint256","internalType":"uint256"},{"name":"hasClaimed","type":"bool","internalType":"bool"}]}],"stateMutability":"view"},{"type":"function","name":"resolveMarket","inputs":[{"name":"marketId","type":"bytes32","internalType":"bytes32"},{"name":"outcome","type":"bool","internalType":"bool"}],"outputs":[],"stateMutability":"nonpayable"},{"type":"function","name":"sellShares","inputs":[{"name":"marketId","type":"bytes32","internalType":"bytes32"},{"name":"outcome","type":"bool","internalType":"bool"},{"name":"shares","type":"uint256","internalType":"uint256"},{"name":"minPayout","type":"uint256","internalType":"uint256"}],"outputs":[],"stateMutability":"nonpayable"},{"type":"function","name":"setDefaultLiquidity","inputs":[{"name":"liquidity","type":"uint256","internalType":"uint256"}],"outputs":[],"stateMutability":"nonpayable"},{"type":"function","name":"setPlatformFee","inputs":[{"name":"feeBps","type":"uint256","internalType":"uint256"}],"outputs":[],"stateMutability":"nonpayable"},{"type":"function","name":"setTreasury","inputs":[{"name":"treasury","type":"address","internalType":"address"}],"outputs":[],"stateMutability":"nonpayable"},{"type":"function","name":"withdraw","inputs":[{"name":"amount","type":"uint256","internalType":"uint256"}],"outputs":[],"stateMutability":"nonpayable"},{"type":"event","name":"Deposited","inputs":[{"name":"user","type":"address","indexed":true,"internalType":"address"},{"name":"amount","type":"uint256","indexed":false,"internalType":"uint256"}],"anonymous":false},{"type":"event","name":"MarketCreated","inputs":[{"name":"marketId","type":"bytes32","indexed":true,"internalType":"bytes32"},{"name":"question","type":"string","indexed":false,"internalType":"string"},{"name":"liquidity","type":"uint256","indexed":false,"internalType":"uint256"},{"name":"endTime","type":"uint256","indexed":false,"internalType":"uint256"},{"name":"creator","type":"address","indexed":true,"internalType":"address"}],"anonymous":false},{"type":"event","name":"MarketResolved","inputs":[{"name":"marketId","type":"bytes32","indexed":true,"internalType":"bytes32"},{"name":"outcome","type":"bool","indexed":false,"internalType":"bool"}],"anonymous":false},{"type":"event","name":"SharesPurchased","inputs":[{"name":"marketId","type":"bytes32","indexed":true,"internalType":"bytes32"},{"name":"trader","type":"address","indexed":true,"internalType":"address"},{"name":"outcome","type":"bool","indexed":false,"internalType":"bool"},{"name":"shares","type":"uint256","indexed":false,"internalType":"uint256"},{"name":"cost","type":"uint256","indexed":false,"internalType":"uint256"}],"anonymous":false},{"type":"event","name":"SharesSold","inputs":[{"name":"marketId","type":"bytes32","indexed":true,"internalType":"bytes32"},{"name":"trader","type":"address","indexed":true,"internalType":"address"},{"name":"outcome","type":"bool","indexed":false,"internalType":"bool"},{"name":"shares","type":"uint256","indexed":false,"internalType":"uint256"},{"name":"payout","type":"uint256","indexed":false,"internalType":"uint256"}],"anonymous":false},{"type":"event","name":"WinningsClaimed","inputs":[{"name":"marketId","type":"bytes32","indexed":true,"internalType":"bytes32"},{"name":"trader","type":"address","indexed":true,"internalType":"address"},{"name":"amount","type":"uint256","indexed":false,"internalType":"uint256"}],"anonymous":false},{"type":"event","name":"Withdrawn","inputs":[{"name":"user","type":"address","indexed":true,"internalType":"address"},{"name":"amount","type":"uint256","indexed":false,"internalType":"uint256"}],"anonymous":false},{"type":"error","name":"AlreadyClaimed","inputs":[]},{"type":"error","name":"InsufficientBalance","inputs":[]},{"type":"error","name":"InsufficientShares","inputs":[]},{"type":"error","name":"InvalidLiquidity","inputs":[]},{"type":"error","name":"MarketAlreadyResolved","inputs":[]},{"type":"error","name":"MarketExists","inputs":[]},{"type":"error","name":"MarketExpired","inputs":[]},{"type":"error","name":"MarketNotActive","inputs":[]},{"type":"error","name":"MarketNotFound","inputs":[]},{"type":"error","name":"MarketNotResolved","inputs":[]},{"type":"error","name":"NoWinningShares","inputs":[]},{"type":"error","name":"OnlyOwner","inputs":[]},{"type":"error","name":"SlippageExceeded","inputs":[]}],"bytecode":{"object":"0x6080604052348015600e575f5ffd5b50611f8a8061001c5f395ff3fe608060405260043610610105575f3560e01c8063862aa18811610092578063d0e30db011610062578063d0e30db014610318578063e49b606c14610320578063e876b4fb1461033f578063f0f442601461035e578063f8b2cb4f1461037d575f5ffd5b8063862aa1881461028f5780638afe4280146102ae578063aaa39c2c146102cd578063c3c95c7b146102ec575f5ffd5b8063398c6f7e116100d8578063398c6f7e146101a15780635c388821146101c25780635e6ff7db146102245780636c9f13941461024357806378695c6914610262575f5ffd5b80630ae8c4761461010957806312e8e2c31461012a5780632e1a7d4d146101495780632fce66da14610168575b5f5ffd5b348015610114575f5ffd5b50610128610123366004611a52565b61039c565b005b348015610135575f5ffd5b50610128610144366004611aeb565b61062b565b348015610154575f5ffd5b50610128610163366004611aeb565b6106ba565b348015610173575f5ffd5b50610187610182366004611aeb565b6107dd565b604080519283526020830191909152015b60405180910390f35b3480156101ac575f5ffd5b506101b5610808565b6040516101989190611b02565b3480156101cd575f5ffd5b506101e16101dc366004611b44565b610867565b60405161019891905f60a0820190508251825260208301516020830152604083015160408301526060830151606083015260808301511515608083015292915050565b34801561022f575f5ffd5b5061018761023e366004611aeb565b610907565b34801561024e575f5ffd5b5061012861025d366004611b7d565b61095f565b34801561026d575f5ffd5b5061028161027c366004611b9e565b610aa6565b604051908152602001610198565b34801561029a575f5ffd5b506101286102a9366004611bd1565b610afc565b3480156102b9575f5ffd5b506101286102c8366004611aeb565b610dfc565b3480156102d8575f5ffd5b506101286102e7366004611bd1565b610e45565b3480156102f7575f5ffd5b5061030b610306366004611aeb565b61107f565b6040516101989190611c6b565b6101286111f1565b34801561032b575f5ffd5b5061028161033a366004611aeb565b61125c565b34801561034a575f5ffd5b50610281610359366004611b9e565b6114a5565b348015610369575f5ffd5b50610128610378366004611d2b565b61156d565b348015610388575f5ffd5b50610281610397366004611d2b565b6115d3565b6103a46115fd565b6001600160a01b0316336001600160a01b0316146103d557604051635fc483c560e01b815260040160405180910390fd5b5f6103de61162b565b5f888152602082905260409020600601549091501561041057604051638fc6f59b60e01b815260040160405180910390fd5b835f036104325780600501549350835f0361043257683635c9adc5dea0000093505b60405180610180016040528088815260200187878080601f0160208091040260200160405190810160405280939291908181526020018383808284375f9201829052509385525050506020808301829052604080840183905260608401899052608084018390524260a085015260c0840188905260e084018390526101008401839052336101208501526001600160a01b038716610140909401939093528a8252848152919020825181559082015160018201906104f09082611de7565b5060408201518160020155606082015181600301556080820151816004015560a0820151816005015560c0820151816006015560e08201518160070155610100820151816008015f6101000a81548160ff0219169083600281111561055757610557611c37565b0217905550610120820151600882018054610140850151610100600160b01b03199091166101009315159390930262010000600160b01b03191692909217620100006001600160a01b039384160217905561016090920151600990910180546001600160a01b031916919092161790556002810180546001810182555f918252602090912001879055604051339088907fc0191c80c536991ffccf2914174633eff80febf92065b348edf2149c26ef363b9061061a908a908a908a908a90611ea6565b60405180910390a350505050505050565b6106336115fd565b6001600160a01b0316336001600160a01b03161461066457604051635fc483c560e01b815260040160405180910390fd5b6103e88111156106aa5760405162461bcd60e51b815260206004820152600c60248201526b08ccaca40e8dede40d0d2ced60a31b60448201526064015b60405180910390fd5b806106b361162b565b6004015550565b5f6106c361162b565b335f9081526006820160205260409020549091508211156106f757604051631e9acf1760e31b815260040160405180910390fd5b335f90815260068201602052604081208054849290610717908490611ef8565b90915550506040515f90339084908381818185875af1925050503d805f811461075b576040519150601f19603f3d011682016040523d82523d5f602084013e610760565b606091505b50509050806107a35760405162461bcd60e51b815260206004820152600f60248201526e151c985b9cd9995c8819985a5b1959608a1b60448201526064016106a1565b60405183815233907f7084f5476618d8e60b11ef0d7d3f06914655adb8793e28ff7f018d4c76d505d59060200160405180910390a2505050565b5f5f5f6107e861162b565b5f9485526020525050604090912060028101546003909101549092909150565b606061081261162b565b60020180548060200260200160405190810160405280929190818152602001828054801561085d57602002820191905f5260205f20905b815481526020019060010190808311610849575b5050505050905090565b6108966040518060a001604052805f81526020015f81526020015f81526020015f81526020015f151581525090565b61089e61162b565b5f8481526001918201602090815260408083206001600160a01b0387168452825291829020825160a081018452815481529381015491840191909152600281015491830191909152600381015460608301526004015460ff161515608082015290505b92915050565b5f5f5f61091261162b565b5f8581526020919091526040902060028101546003820154600483015492935061093d92600161164f565b92506109578160020154826003015483600401545f61164f565b915050915091565b5f61096861162b565b5f848152602082905260408120600681015492935091900361099d576040516307db1be560e41b815260040160405180910390fd5b6001600882015460ff1660028111156109b8576109b8611c37565b036109d65760405163aa43cb2d60e01b815260040160405180910390fd5b60098101546001600160a01b031633145f6109ef6115fd565b6001600160a01b0316336001600160a01b03161490508180610a0e5750805b610a4b5760405162461bcd60e51b815260206004820152600e60248201526d139bdd08185d5d1a1bdc9a5e995960921b60448201526064016106a1565b60088301805461ffff19166101008715159081029190911760011790915560405190815286907ffe12240b58a5af1b6e55a08573548c8fa611e20873929bd511e363ff6a66340e9060200160405180910390a2505050505050565b5f5f610ab061162b565b5f8681526020829052604081206006810154929350919003610ae5576040516307db1be560e41b815260040160405180910390fd5b610af08186866118ac565b925050505b9392505050565b5f610b0561162b565b5f8681526020829052604081206006810154929350919003610b3a576040516307db1be560e41b815260040160405180910390fd5b5f600882015460ff166002811115610b5457610b54611c37565b14610b7257604051635a90bb8d60e11b815260040160405180910390fd5b600781015415801590610b885750806007015442115b15610ba65760405163b2094b5960e01b815260040160405180910390fd5b5f610bbe826002015483600301548460040154611934565b90505f86610bd0578260020154610be0565b858360020154610be09190611f0b565b90505f87610bfd57868460030154610bf89190611f0b565b610c03565b83600301545b90505f610c1583838760040154611934565b90505f610c228583611ef8565b905087811115610c4557604051638199f5f360e01b815260040160405180910390fd5b335f908152600688016020526040902054811115610c7657604051631e9acf1760e31b815260040160405180910390fd5b335f90815260068801602052604081208054839290610c96908490611ef8565b90915550505f8b815260078801602052604081208054839290610cba908490611f0b565b9250508190555080866005015f828254610cd49190611f0b565b90915550508915610d2c5788866002015f828254610cf29190611f0b565b90915550505f8b81526001880160209081526040808320338452909152812080548b9290610d21908490611f0b565b90915550610d769050565b88866003015f828254610d3f9190611f0b565b90915550505f8b815260018089016020908152604080842033855290915282200180548b9290610d70908490611f0b565b90915550505b5f8b8152600188016020908152604080832033845290915281206002018054839290610da3908490611f0b565b9091555050604080518b15158152602081018b905290810182905233908c907f0e796a03bae1100e2202fb705a842d38ad33db974ecd6ef87896b67234111ae39060600160405180910390a35050505050505050505050565b610e046115fd565b6001600160a01b0316336001600160a01b031614610e3557604051635fc483c560e01b815260040160405180910390fd5b80610e3e61162b565b6005015550565b5f610e4e61162b565b5f8681526020829052604081206006810154929350919003610e83576040516307db1be560e41b815260040160405180910390fd5b5f600882015460ff166002811115610e9d57610e9d611c37565b14610ebb57604051635a90bb8d60e11b815260040160405180910390fd5b5f86815260018301602090815260408083203384529091529020858015610ee25750805485115b15610f0057604051633999656760e01b815260040160405180910390fd5b85158015610f115750848160010154105b15610f2f57604051633999656760e01b815260040160405180910390fd5b5f610f3b8388886118ac565b905084811015610f5e57604051638199f5f360e01b815260040160405180910390fd5b8615610f9a5785836002015f828254610f779190611ef8565b90915550508154869083905f90610f8f908490611ef8565b90915550610fcd9050565b85836003015f828254610fad9190611ef8565b9250508190555085826001015f828254610fc79190611ef8565b90915550505b80826003015f828254610fe09190611f0b565b90915550505f88815260078501602052604081208054839290611004908490611ef8565b9091555050335f90815260068501602052604081208054839290611029908490611f0b565b909155505060408051881515815260208101889052908101829052339089907f909d3b70e593a040161311228278ff865698cc72c76adf11efc4d548a6c9e6119060600160405180910390a35050505050505050565b6110876119ce565b61108f61162b565b5f015f8381526020019081526020015f20604051806101800160405290815f82015481526020016001820180546110c590611d58565b80601f01602080910402602001604051908101604052809291908181526020018280546110f190611d58565b801561113c5780601f106111135761010080835404028352916020019161113c565b820191905f5260205f20905b81548152906001019060200180831161111f57829003601f168201915b50505091835250506002828101546020830152600383015460408301526004830154606083015260058301546080830152600683015460a0830152600783015460c0830152600883015460e09092019160ff169081111561119f5761119f611c37565b60028111156111b0576111b0611c37565b8152600882015460ff610100820416151560208301526001600160a01b03620100009091048116604083015260099092015490911660609091015292915050565b5f6111fa61162b565b335f90815260068201602052604081208054929350349290919061121f908490611f0b565b909155505060405134815233907f2da466a7b24304f47e87fa2e1e5a81b9831ce54fec19055ce277ca2f39ba42c49060200160405180910390a250565b5f5f61126661162b565b5f8481526020829052604090209091506001600882015460ff16600281111561129157611291611c37565b146112af5760405163174b639360e11b815260040160405180910390fd5b5f84815260018301602090815260408083203384529091529020600481015460ff16156112ef57604051630c8d9eab60e31b815260040160405180910390fd5b60088201545f90610100900460ff1661130c57816001015461130f565b81545b9050805f036113315760405163843f941b60e01b815260040160405180910390fd5b60088301545f90610100900460ff1661134e578360030154611354565b83600201545b5f8881526007870160205260408120546004880154929350916127109061137b9084611f1e565b6113859190611f35565b90505f6113928284611ef8565b90508361139f8683611f1e565b6113a99190611f35565b60048701805460ff19166001179055985081158015906113d5575060038801546001600160a01b031615155b1561140d5760038801546001600160a01b03165f90815260068901602052604081208054849290611407908490611f0b565b90915550505b335f908152600689016020526040812080548b929061142d908490611f0b565b9091555061143d9050828a611f0b565b5f8b815260078a0160205260408120805490919061145c908490611ef8565b909155505060405189815233908b907fac1dfcff29900d7010c04a6028e48814b8a49daf045127abd10a4636d1d491159060200160405180910390a35050505050505050919050565b5f5f6114af61162b565b5f86815260208290526040812060068101549293509190036114e4576040516307db1be560e41b815260040160405180910390fd5b5f6114fc826002015483600301548460040154611934565b90505f8661150e57826002015461151e565b85836002015461151e9190611f0b565b90505f8761153b578684600301546115369190611f0b565b611541565b83600301545b90505f61155383838760040154611934565b905061155f8482611ef8565b9a9950505050505050505050565b6115756115fd565b6001600160a01b0316336001600160a01b0316146115a657604051635fc483c560e01b815260040160405180910390fd5b806115af61162b565b60030180546001600160a01b0319166001600160a01b039290921691909117905550565b5f6115dc61162b565b6001600160a01b039092165f90815260069290920160205250604090205490565b7fc8fcad8db84d3cc18b4c41d551ea0ee66dd599cde068d998e57d5e09332c1320546001600160a01b031690565b7ffbec884486cb0bcd785f1411eb11f3becebdcdb21d4a33a7624a07d9875e62fe90565b5f8415801561165c575083155b1561167057506706f05b59d3b200006118a4565b5f61167b8587611f0b565b9050805f03611695576706f05b59d3b200009150506118a4565b82156117a7575f816116af670de0b6b3a764000089611f1e565b6116b99190611f35565b9050841561179e575f8583106116d757670de0b6b3a76400006116f4565b856116ea670de0b6b3a764000085611f1e565b6116f49190611f35565b90505f670de0b6b3a7640000826117136706f05b59d3b2000086611ef8565b61171d9190611f1e565b6117279190611f35565b611739906706f05b59d3b20000611f0b565b90506706f05b59d3b20000831015611793575f61175e846706f05b59d3b20000611ef8565b9050670de0b6b3a76400006117738483611f1e565b61177d9190611f35565b61178f906706f05b59d3b20000611ef8565b9150505b93506118a492505050565b91506118a49050565b5f816117bb670de0b6b3a764000088611f1e565b6117c59190611f35565b9050841561179e575f8583106117e357670de0b6b3a7640000611800565b856117f6670de0b6b3a764000085611f1e565b6118009190611f35565b90506706f05b59d3b200008210611860575f6118246706f05b59d3b2000084611ef8565b9050670de0b6b3a76400006118398383611f1e565b6118439190611f35565b611855906706f05b59d3b20000611f0b565b9450505050506118a4565b5f611873836706f05b59d3b20000611ef8565b9050670de0b6b3a76400006118888383611f1e565b6118929190611f35565b611855906706f05b59d3b20000611ef8565b949350505050565b5f5f6118c5856002015486600301548760040154611934565b90505f846118d75785600201546118e7565b8386600201546118e79190611ef8565b90505f85611904578487600301546118ff9190611ef8565b61190a565b86600301545b90505f61191c83838a60040154611934565b90506119288185611ef8565b98975050505050505050565b5f815f0361194357505f610af5565b5f61194e8486611f0b565b90508080156119c5575f8587106119655785611967565b865b90505f8361197d670de0b6b3a764000084611f1e565b6119879190611f35565b90505f6064670de0b6b3a764000061199f848a611f1e565b6119a99190611f35565b6119b39190611f35565b90506119bf8185611f0b565b93505050505b95945050505050565b6040518061018001604052805f8152602001606081526020015f81526020015f81526020015f81526020015f81526020015f81526020015f81526020015f6002811115611a1d57611a1d611c37565b81525f602082018190526040820181905260609091015290565b80356001600160a01b0381168114611a4d575f5ffd5b919050565b5f5f5f5f5f5f60a08789031215611a67575f5ffd5b86359550602087013567ffffffffffffffff811115611a84575f5ffd5b8701601f81018913611a94575f5ffd5b803567ffffffffffffffff811115611aaa575f5ffd5b896020828401011115611abb575f5ffd5b602091909101955093506040870135925060608701359150611adf60808801611a37565b90509295509295509295565b5f60208284031215611afb575f5ffd5b5035919050565b602080825282518282018190525f918401906040840190835b81811015611b39578351835260209384019390920191600101611b1b565b509095945050505050565b5f5f60408385031215611b55575f5ffd5b82359150611b6560208401611a37565b90509250929050565b80358015158114611a4d575f5ffd5b5f5f60408385031215611b8e575f5ffd5b82359150611b6560208401611b6e565b5f5f5f60608486031215611bb0575f5ffd5b83359250611bc060208501611b6e565b929592945050506040919091013590565b5f5f5f5f60808587031215611be4575f5ffd5b84359350611bf460208601611b6e565b93969395505050506040820135916060013590565b5f81518084528060208401602086015e5f602082860101526020601f19601f83011685010191505092915050565b634e487b7160e01b5f52602160045260245ffd5b60038110611c6757634e487b7160e01b5f52602160045260245ffd5b9052565b60208152815160208201525f60208301516101806040840152611c926101a0840182611c09565b90506040840151606084015260608401516080840152608084015160a084015260a084015160c084015260c084015160e084015260e0840151610100840152610100840151611ce5610120850182611c4b565b50610120840151801515610140850152506101408401516001600160a01b038116610160850152506101608401516001600160a01b038116610180850152509392505050565b5f60208284031215611d3b575f5ffd5b610af582611a37565b634e487b7160e01b5f52604160045260245ffd5b600181811c90821680611d6c57607f821691505b602082108103611d8a57634e487b7160e01b5f52602260045260245ffd5b50919050565b601f821115611de25782821115611de257805f5260205f20601f840160051c6020851015611dbb57505f5b90810190601f840160051c035f5b81811015611dde575f83820155600101611dc9565b5050505b505050565b815167ffffffffffffffff811115611e0157611e01611d44565b611e1581611e0f8454611d58565b84611d90565b6020601f821160018114611e47575f8315611e305750848201515b5f19600385901b1c1916600184901b178455611e9f565b5f84815260208120601f198516915b82811015611e765787850151825560209485019460019092019101611e56565b5084821015611e9357868401515f19600387901b60f8161c191681555b505060018360011b0184555b5050505050565b60608152836060820152838560808301375f608085830101525f6080601f19601f870116830101905083602083015282604083015295945050505050565b634e487b7160e01b5f52601160045260245ffd5b8181038181111561090157610901611ee4565b8082018082111561090157610901611ee4565b808202811582820484141761090157610901611ee4565b5f82611f4f57634e487b7160e01b5f52601260045260245ffd5b50049056fea2646970667358221220a5ddbd1fcf3461a90a784c97d10c9dac52370d64f28d79244d14df2797bd446464736f6c63430008210033","linkReferences":{}},"methodIdentifiers":{"buyShares(bytes32,bool,uint256,uint256)":"862aa188","calculateCost(bytes32,bool,uint256)":"e876b4fb","calculateSellPayout(bytes32,bool,uint256)":"78695c69","claimWinnings(bytes32)":"e49b606c","createMarket(bytes32,string,uint256,uint256,address)":"0ae8c476","deposit()":"d0e30db0","getBalance(address)":"f8b2cb4f","getMarket(bytes32)":"c3c95c7b","getMarketIds()":"398c6f7e","getMarketPrices(bytes32)":"5e6ff7db","getMarketShares(bytes32)":"2fce66da","getPosition(bytes32,address)":"5c388821","resolveMarket(bytes32,bool)":"6c9f1394","sellShares(bytes32,bool,uint256,uint256)":"aaa39c2c","setDefaultLiquidity(uint256)":"8afe4280","setPlatformFee(uint256)":"12e8e2c3","setTreasury(address)":"f0f44260","withdraw(uint256)":"2e1a7d4d"},"id":4}