{"abi":[{"type":"function","name":"getOracleAddresses","inputs":[],"outputs":[{"name":"chainlink","type":"address","internalType":"address"},{"name":"uma","type":"address","internalType":"address"}],"stateMutability":"view"},{"type":"function","name":"getPendingRequest","inputs":[{"name":"marketId","type":"bytes32","internalType":"bytes32"}],"outputs":[{"name":"","type":"bytes32","internalType":"bytes32"}],"stateMutability":"view"},{"type":"function","name":"manualResolve","inputs":[{"name":"marketId","type":"bytes32","internalType":"bytes32"},{"name":"outcome","type":"bool","internalType":"bool"}],"outputs":[],"stateMutability":"nonpayable"},{"type":"function","name":"oracleCallback","inputs":[{"name":"marketId","type":"bytes32","internalType":"bytes32"},{"name":"requestId","type":"bytes32","internalType":"bytes32"},{"name":"outcome","type":"bool","internalType":"bool"}],"outputs":[],"stateMutability":"nonpayable"},{"type":"function","name":"requestChainlinkResolution","inputs":[{"name":"marketId","type":"bytes32","internalType":"bytes32"},{"name":"jobId","type":"bytes32","internalType":"bytes32"},{"name":"fee","type":"uint256","internalType":"uint256"}],"outputs":[{"name":"requestId","type":"bytes32","internalType":"bytes32"}],"stateMutability":"nonpayable"},{"type":"function","name":"requestUMAResolution","inputs":[{"name":"marketId","type":"bytes32","internalType":"bytes32"},{"name":"ancillaryData","type":"bytes","internalType":"bytes"},{"name":"bond","type":"uint256","internalType":"uint256"}],"outputs":[{"name":"requestId","type":"bytes32","internalType":"bytes32"}],"stateMutability":"nonpayable"},{"type":"function","name":"setChainlinkOracle","inputs":[{"name":"oracle","type":"address","internalType":"address"}],"outputs":[],"stateMutability":"nonpayable"},{"type":"function","name":"setUMAOracle","inputs":[{"name":"oracle","type":"address","internalType":"address"}],"outputs":[],"stateMutability":"nonpayable"},{"type":"function","name":"umaOracleCallback","inputs":[{"name":"marketId","type":"bytes32","internalType":"bytes32"},{"name":"requestId","type":"bytes32","internalType":"bytes32"},{"name":"outcome","type":"int256","internalType":"int256"}],"outputs":[],"stateMutability":"nonpayable"},{"type":"event","name":"OracleAddressUpdated","inputs":[{"name":"oracleType","type":"string","indexed":false,"internalType":"string"},{"name":"newOracle","type":"address","indexed":true,"internalType":"address"}],"anonymous":false},{"type":"event","name":"OracleRequestSubmitted","inputs":[{"name":"marketId","type":"bytes32","indexed":true,"internalType":"bytes32"},{"name":"requestId","type":"bytes32","indexed":true,"internalType":"bytes32"},{"name":"oracleType","type":"string","indexed":false,"internalType":"string"}],"anonymous":false},{"type":"event","name":"OracleResponseReceived","inputs":[{"name":"marketId","type":"bytes32","indexed":true,"internalType":"bytes32"},{"name":"requestId","type":"bytes32","indexed":true,"internalType":"bytes32"},{"name":"outcome","type":"bool","indexed":false,"internalType":"bool"}],"anonymous":false},{"type":"error","name":"InvalidOracle","inputs":[]},{"type":"error","name":"MarketNotFound","inputs":[]},{"type":"error","name":"OnlyOwner","inputs":[]},{"type":"error","name":"OracleNotConfigured","inputs":[]},{"type":"error","name":"RequestPending","inputs":[]},{"type":"error","name":"UnauthorizedCallback","inputs":[]}],"bytecode":{"object":"0x6080604052348015600e575f5ffd5b50610bbd8061001c5f395ff3fe608060405234801561000f575f5ffd5b5060043610610090575f3560e01c80637a9b0412116100635780637a9b04121461014657806388b12d5514610159578063ab5abccf14610197578063be96c319146101aa578063f6ab3fee146101bd575f5ffd5b806310520a6b146100945780633cdce91f146100ba5780637330aba2146100cf5780637a18d81714610133575b5f5ffd5b6100a76100a2366004610998565b6101d0565b6040519081526020015b60405180910390f35b6100cd6100c8366004610a72565b61033b565b005b7ffbec884486cb0bcd785f1411eb11f3becebdcdb21d4a33a7624a07d9875e6306547ffbec884486cb0bcd785f1411eb11f3becebdcdb21d4a33a7624a07d9875e630754604080516001600160a01b039384168152929091166020830152016100b1565b6100a7610141366004610a9c565b610426565b6100cd610154366004610ac5565b61058f565b6100a7610167366004610af2565b5f9081527ffbec884486cb0bcd785f1411eb11f3becebdcdb21d4a33a7624a07d9875e6308602052604090205490565b6100cd6101a5366004610ac5565b610680565b6100cd6101b8366004610a9c565b610764565b6100cd6101cb366004610b09565b610862565b5f6101d9610956565b6001600160a01b0316336001600160a01b03161461020a57604051635fc483c560e01b815260040160405180910390fd5b5f8481525f516020610b685f395f51905f5260208190526040822060060154909103610249576040516307db1be560e41b815260040160405180910390fd5b60098101546001600160a01b03166102745760405163012fac1160e21b815260040160405180910390fd5b5f858152600a82016020526040902054156102a25760405163201b43dd60e21b815260040160405180910390fd5b844285856040516020016102b99493929190610b3b565b60408051601f1981840301815282825280516020918201205f898152600a86019092529190208190559250829086907f9e823051fd445af2f478f3d089a1c0606df9146853a24390a89054045ed2ecb09061032b90602080825260039082015262756d6160e81b604082015260600190565b60405180910390a3509392505050565b610343610956565b6001600160a01b0316336001600160a01b03161461037457604051635fc483c560e01b815260040160405180910390fd5b5f8281525f516020610b685f395f51905f52602081905260408220600601549091036103b3576040516307db1be560e41b815260040160405180910390fd5b5f838152600a82016020908152604080832083905583825280832060088101805461ffff1916610100881515908102919091176001179091559151918252929186917fc53f32f8b6b3866a5a7cbb9ba475a8d0d19ec7680bac7e58a61a0866bf29cfa9910160405180910390a350505050565b5f61042f610956565b6001600160a01b0316336001600160a01b03161461046057604051635fc483c560e01b815260040160405180910390fd5b5f8481525f516020610b685f395f51905f526020819052604082206006015490910361049f576040516307db1be560e41b815260040160405180910390fd5b60088101546001600160a01b03166104ca5760405163012fac1160e21b815260040160405180910390fd5b5f858152600a82016020526040902054156104f85760405163201b43dd60e21b815260040160405180910390fd5b60408051602080820188905242828401526060820187905260808083018790528351808403909101815260a083018085528151918301919091205f8a8152600a870184529490942084905552600960c082015268636861696e6c696e6b60b81b60e0820152909250829086907f9e823051fd445af2f478f3d089a1c0606df9146853a24390a89054045ed2ecb0906101000161032b565b610597610956565b6001600160a01b0316336001600160a01b0316146105c857604051635fc483c560e01b815260040160405180910390fd5b6001600160a01b0381166105ef57604051639589a27d60e01b815260040160405180910390fd5b7ffbec884486cb0bcd785f1411eb11f3becebdcdb21d4a33a7624a07d9875e630680546001600160a01b0319166001600160a01b03831690811790915560408051602080825260099082015268636861696e6c696e6b60b81b918101919091527fa78a2a5257bd53585f80eea4b591888b5bd997817fdd4fccf833f093471f3bd0906060015b60405180910390a250565b610688610956565b6001600160a01b0316336001600160a01b0316146106b957604051635fc483c560e01b815260040160405180910390fd5b6001600160a01b0381166106e057604051639589a27d60e01b815260040160405180910390fd5b7ffbec884486cb0bcd785f1411eb11f3becebdcdb21d4a33a7624a07d9875e630780546001600160a01b0319166001600160a01b03831690811790915560408051602080825260039082015262756d6160e81b918101919091527fa78a2a5257bd53585f80eea4b591888b5bd997817fdd4fccf833f093471f3bd090606001610675565b7ffbec884486cb0bcd785f1411eb11f3becebdcdb21d4a33a7624a07d9875e6307545f516020610b685f395f51905f52906001600160a01b031633146107bd57604051637ae3640d60e11b815260040160405180910390fd5b5f848152600a8201602052604090205483146107ec57604051637ae3640d60e11b815260040160405180910390fd5b5f848152600a8201602090815260408083208390558382529182902060088101805461ffff1916600187811461010081029290921717909155925192835291859187917fc53f32f8b6b3866a5a7cbb9ba475a8d0d19ec7680bac7e58a61a0866bf29cfa991015b60405180910390a35050505050565b7ffbec884486cb0bcd785f1411eb11f3becebdcdb21d4a33a7624a07d9875e6306545f516020610b685f395f51905f52906001600160a01b031633146108bb57604051637ae3640d60e11b815260040160405180910390fd5b5f848152600a8201602052604090205483146108ea57604051637ae3640d60e11b815260040160405180910390fd5b5f848152600a8201602090815260408083208390558382529182902060088101805461ffff191661010087151590810291909117600117909155925192835291859187917fc53f32f8b6b3866a5a7cbb9ba475a8d0d19ec7680bac7e58a61a0866bf29cfa99101610853565b7fc8fcad8db84d3cc18b4c41d551ea0ee66dd599cde068d998e57d5e09332c1320546001600160a01b031690565b634e487b7160e01b5f52604160045260245ffd5b5f5f5f606084860312156109aa575f5ffd5b83359250602084013567ffffffffffffffff8111156109c7575f5ffd5b8401601f810186136109d7575f5ffd5b803567ffffffffffffffff8111156109f1576109f1610984565b604051601f8201601f19908116603f0116810167ffffffffffffffff81118282101715610a2057610a20610984565b604052818152828201602001881015610a37575f5ffd5b816020840160208301375f9181016020019190915293969395505050506040919091013590565b80358015158114610a6d575f5ffd5b919050565b5f5f60408385031215610a83575f5ffd5b82359150610a9360208401610a5e565b90509250929050565b5f5f5f60608486031215610aae575f5ffd5b505081359360208301359350604090920135919050565b5f60208284031215610ad5575f5ffd5b81356001600160a01b0381168114610aeb575f5ffd5b9392505050565b5f60208284031215610b02575f5ffd5b5035919050565b5f5f5f60608486031215610b1b575f5ffd5b8335925060208401359150610b3260408501610a5e565b90509250925092565b8481528360208201525f83518060208601604085015e604092019182019290925260600194935050505056fefbec884486cb0bcd785f1411eb11f3becebdcdb21d4a33a7624a07d9875e62fea26469706673582212208fe4b720545c06f1977b23932e4331f26e2e3acf3e84f4f5f096db924cffddf264736f6c63430008210033","linkReferences":{}},"methodIdentifiers":{"getOracleAddresses()":"7330aba2","getPendingRequest(bytes32)":"88b12d55","manualResolve(bytes32,bool)":"3cdce91f","oracleCallback(bytes32,bytes32,bool)":"f6ab3fee","requestChainlinkResolution(bytes32,bytes32,uint256)":"7a18d817","requestUMAResolution(bytes32,bytes,uint256)":"10520a6b","setChainlinkOracle(address)":"7a9b0412","setUMAOracle(address)":"ab5abccf","umaOracleCallback(bytes32,bytes32,int256)":"be96c319"},"id":3}