{"abi":[{"type":"constructor","inputs":[{"name":"_identityRegistry","type":"address","internalType":"address"}],"stateMutability":"nonpayable"},{"type":"function","name":"BASE_REPUTATION","inputs":[],"outputs":[{"name":"","type":"uint256","internalType":"uint256"}],"stateMutability":"view"},{"type":"function","name":"MIN_REPUTATION_TO_CREATE_MARKET","inputs":[],"outputs":[{"name":"","type":"uint256","internalType":"uint256"}],"stateMutability":"view"},{"type":"function","name":"MIN_REPUTATION_TO_DISPUTE","inputs":[],"outputs":[{"name":"","type":"uint256","internalType":"uint256"}],"stateMutability":"view"},{"type":"function","name":"addUpdater","inputs":[{"name":"updater","type":"address","internalType":"address"}],"outputs":[],"stateMutability":"nonpayable"},{"type":"function","name":"adjustReputation","inputs":[{"name":"user","type":"address","internalType":"address"},{"name":"newScore","type":"uint256","internalType":"uint256"},{"name":"reason","type":"string","internalType":"string"}],"outputs":[],"stateMutability":"nonpayable"},{"type":"function","name":"admin","inputs":[],"outputs":[{"name":"","type":"address","internalType":"address"}],"stateMutability":"view"},{"type":"function","name":"canCreateMarket","inputs":[{"name":"user","type":"address","internalType":"address"}],"outputs":[{"name":"","type":"bool","internalType":"bool"}],"stateMutability":"view"},{"type":"function","name":"canDispute","inputs":[{"name":"user","type":"address","internalType":"address"}],"outputs":[{"name":"","type":"bool","internalType":"bool"}],"stateMutability":"view"},{"type":"function","name":"getAccuracy","inputs":[{"name":"user","type":"address","internalType":"address"}],"outputs":[{"name":"accuracy","type":"uint256","internalType":"uint256"},{"name":"total","type":"uint256","internalType":"uint256"},{"name":"correct","type":"uint256","internalType":"uint256"}],"stateMutability":"view"},{"type":"function","name":"getReputation","inputs":[{"name":"user","type":"address","internalType":"address"}],"outputs":[{"name":"","type":"tuple","internalType":"struct ERC8004ReputationSystem.ReputationScore","components":[{"name":"totalScore","type":"uint256","internalType":"uint256"},{"name":"predictionAccuracy","type":"uint256","internalType":"uint256"},{"name":"totalPredictions","type":"uint256","internalType":"uint256"},{"name":"correctPredictions","type":"uint256","internalType":"uint256"},{"name":"totalVolume","type":"uint256","internalType":"uint256"},{"name":"marketsCreated","type":"uint256","internalType":"uint256"},{"name":"disputesWon","type":"uint256","internalType":"uint256"},{"name":"disputesLost","type":"uint256","internalType":"uint256"},{"name":"lastUpdateTime","type":"uint256","internalType":"uint256"}]}],"stateMutability":"view"},{"type":"function","name":"getScore","inputs":[{"name":"user","type":"address","internalType":"address"}],"outputs":[{"name":"","type":"uint256","internalType":"uint256"}],"stateMutability":"view"},{"type":"function","name":"hasVerifiedIdentity","inputs":[{"name":"user","type":"address","internalType":"address"},{"name":"minLevel","type":"uint256","internalType":"uint256"}],"outputs":[{"name":"","type":"bool","internalType":"bool"}],"stateMutability":"view"},{"type":"function","name":"identityRegistry","inputs":[],"outputs":[{"name":"","type":"address","internalType":"contract ERC8004IdentityRegistry"}],"stateMutability":"view"},{"type":"function","name":"recordDispute","inputs":[{"name":"user","type":"address","internalType":"address"},{"name":"won","type":"bool","internalType":"bool"}],"outputs":[],"stateMutability":"nonpayable"},{"type":"function","name":"recordMarketCreation","inputs":[{"name":"user","type":"address","internalType":"address"}],"outputs":[],"stateMutability":"nonpayable"},{"type":"function","name":"recordPrediction","inputs":[{"name":"user","type":"address","internalType":"address"},{"name":"correct","type":"bool","internalType":"bool"},{"name":"volume","type":"uint256","internalType":"uint256"}],"outputs":[],"stateMutability":"nonpayable"},{"type":"function","name":"removeUpdater","inputs":[{"name":"updater","type":"address","internalType":"address"}],"outputs":[],"stateMutability":"nonpayable"},{"type":"function","name":"reputationUpdaters","inputs":[{"name":"","type":"address","internalType":"address"}],"outputs":[{"name":"","type":"bool","internalType":"bool"}],"stateMutability":"view"},{"type":"function","name":"reputations","inputs":[{"name":"","type":"address","internalType":"address"}],"outputs":[{"name":"totalScore","type":"uint256","internalType":"uint256"},{"name":"predictionAccuracy","type":"uint256","internalType":"uint256"},{"name":"totalPredictions","type":"uint256","internalType":"uint256"},{"name":"correctPredictions","type":"uint256","internalType":"uint256"},{"name":"totalVolume","type":"uint256","internalType":"uint256"},{"name":"marketsCreated","type":"uint256","internalType":"uint256"},{"name":"disputesWon","type":"uint256","internalType":"uint256"},{"name":"disputesLost","type":"uint256","internalType":"uint256"},{"name":"lastUpdateTime","type":"uint256","internalType":"uint256"}],"stateMutability":"view"},{"type":"function","name":"setAdmin","inputs":[{"name":"newAdmin","type":"address","internalType":"address"}],"outputs":[],"stateMutability":"nonpayable"},{"type":"event","name":"DisputeResolved","inputs":[{"name":"user","type":"address","indexed":true,"internalType":"address"},{"name":"won","type":"bool","indexed":false,"internalType":"bool"}],"anonymous":false},{"type":"event","name":"PredictionRecorded","inputs":[{"name":"user","type":"address","indexed":true,"internalType":"address"},{"name":"correct","type":"bool","indexed":false,"internalType":"bool"},{"name":"volume","type":"uint256","indexed":false,"internalType":"uint256"}],"anonymous":false},{"type":"event","name":"ReputationUpdated","inputs":[{"name":"user","type":"address","indexed":true,"internalType":"address"},{"name":"newScore","type":"uint256","indexed":false,"internalType":"uint256"},{"name":"reason","type":"string","indexed":false,"internalType":"string"}],"anonymous":false},{"type":"event","name":"UpdaterAdded","inputs":[{"name":"updater","type":"address","indexed":true,"internalType":"address"}],"anonymous":false},{"type":"event","name":"UpdaterRemoved","inputs":[{"name":"updater","type":"address","indexed":true,"internalType":"address"}],"anonymous":false},{"type":"error","name":"IdentityNotVerified","inputs":[]},{"type":"error","name":"NotAdmin","inputs":[]},{"type":"error","name":"NotUpdater","inputs":[]}],"bytecode":{"object":"0x60a0604052348015600e575f5ffd5b5060405161100a38038061100a833981016040819052602b91606b565b6001600160a01b0316608052600280546001600160a01b031916339081179091555f908152600160208190526040909120805460ff191690911790556096565b5f60208284031215607a575f5ffd5b81516001600160a01b0381168114608f575f5ffd5b9392505050565b608051610f556100b55f395f818161021b0152610af70152610f555ff3fe608060405234801561000f575f5ffd5b5060043610610127575f3560e01c8063704b6c02116100a95780639c89a0e21161006e5780639c89a0e214610365578063b0b0555e146103e4578063d47875d0146103ec578063ec1b3e89146103ff578063f851a44014610407575f5ffd5b8063704b6c02146102c6578063783df30a146102d95780639743d7d41461032c57806398aae0841461033f5780639a51abf814610352575f5ffd5b806328cee41a116100ef57806328cee41a146102555780633050a73d1461026857806343d24a5e1461028a5780634f2b0d4a1461029d57806358d3b6dc146102b3575f5ffd5b806304b07a5e1461012b57806306fa15a71461014057806307af4fb9146101e05780630af0042914610203578063134e18f414610216575b5f5ffd5b61013e610139366004610ca6565b61041a565b005b61019761014e366004610ca6565b5f602052805f5260405f205f91509050805f0154908060010154908060020154908060030154908060040154908060050154908060060154908060070154908060080154905089565b60408051998a5260208a0198909852968801959095526060870193909352608086019190915260a085015260c084015260e0830152610100820152610120015b60405180910390f35b6101f36101ee366004610ca6565b61048d565b60405190151581526020016101d7565b61013e610211366004610ca6565b6104ba565b61023d7f000000000000000000000000000000000000000000000000000000000000000081565b6040516001600160a01b0390911681526020016101d7565b61013e610263366004610cbf565b6105b4565b6101f3610276366004610ca6565b60016020525f908152604090205460ff1681565b61013e610298366004610ca6565b61062f565b6102a5600a81565b6040519081526020016101d7565b61013e6102c1366004610d52565b6106a8565b61013e6102d4366004610ca6565b610860565b6103116102e7366004610ca6565b6001600160a01b03165f908152602081905260409020600181015460028201546003909201549092565b604080519384526020840192909252908201526060016101d7565b61013e61033a366004610d87565b6108ad565b6101f361034d366004610dc3565b610acf565b6101f3610360366004610ca6565b610b6b565b610378610373366004610ca6565b610b98565b6040516101d791905f61012082019050825182526020830151602083015260408301516040830152606083015160608301526080830151608083015260a083015160a083015260c083015160c083015260e083015160e083015261010083015161010083015292915050565b6102a5606481565b6102a56103fa366004610ca6565b610c5d565b6102a5603281565b60025461023d906001600160a01b031681565b6002546001600160a01b0316331461044557604051637bfa4b9f60e01b815260040160405180910390fd5b6001600160a01b0381165f81815260016020526040808220805460ff19169055517f209d819a9ec655e89f2b2b9d65c8a78879b45a8f20d1941d69c5fe6dc21bcb629190a250565b6001600160a01b0381165f908152602081905260408120548082036104b05750600a5b6032111592915050565b335f9081526001602052604090205460ff161580156104e457506002546001600160a01b03163314155b1561050257604051639a280f3960e01b815260040160405180910390fd5b6001600160a01b0381165f908152602081905260408120600281015490910361052a57600a81555b600581018054905f61053b83610dff565b9190505550600a815f015f8282546105539190610e17565b909155505042600882015580546040805191825260208201819052600e908201526d1b585c9ad95d17d8dc99585d195960921b60608201526001600160a01b038316905f516020610f005f395f51905f529060800160405180910390a25050565b6002546001600160a01b031633146105df57604051637bfa4b9f60e01b815260040160405180910390fd5b6001600160a01b0384165f818152602081905260409081902085815542600890910155515f516020610f005f395f51905f529061062190869086908690610e2a565b60405180910390a250505050565b6002546001600160a01b0316331461065a57604051637bfa4b9f60e01b815260040160405180910390fd5b6001600160a01b0381165f818152600160208190526040808320805460ff1916909217909155517f23a38f89c31ff6329bf86f3863cfa2ad8fc1462c40dbf907dbbebb8f9cb237ec9190a250565b335f9081526001602052604090205460ff161580156106d257506002546001600160a01b03163314155b156106f057604051639a280f3960e01b815260040160405180910390fd5b6001600160a01b0382165f908152602081905260408120600281015490910361071857600a81555b426008820155811561075857600681018054905f61073583610dff565b9190505550600f815f015f82825461074d9190610e17565b909155506107909050565b600781018054905f61076983610dff565b909155505080546014101561078b576014815f015f82825461074d9190610e5f565b600181555b826001600160a01b03167fcea2bc33eef9c2bacf266c2b7b17f8f2db3c22582cb56c00467843e85d98021e836040516107cd911515815260200190565b60405180910390a2826001600160a01b03165f516020610f005f395f51905f52825f015484610820576040518060400160405280600c81526020016b191a5cdc1d5d1957db1bdcdd60a21b815250610845565b6040518060400160405280600b81526020016a3234b9b83aba32afbbb7b760a91b8152505b604051610853929190610e72565b60405180910390a2505050565b6002546001600160a01b0316331461088b57604051637bfa4b9f60e01b815260040160405180910390fd5b600280546001600160a01b0319166001600160a01b0392909216919091179055565b335f9081526001602052604090205460ff161580156108d757506002546001600160a01b03163314155b156108f557604051639a280f3960e01b815260040160405180910390fd5b6001600160a01b0383165f908152602081905260408120600281015490910361091d57600a81555b600281018054905f61092e83610dff565b919050555081816004015f8282546109469190610e17565b909155505042600882015582156109b857600381018054905f61096883610dff565b909155505f9050610981670de0b6b3a764000084610eae565b9050600a8111156109905750600a5b61099b816005610e17565b825f015f8282546109ac9190610e17565b909155506109db915050565b8054600210156109db576002815f015f8282546109d59190610e5f565b90915550505b600281015460038201546109f190612710610ecd565b6109fb9190610eae565b6001820155604080518415158152602081018490526001600160a01b038616917f920d9105f27bf523aaad1c7e862c9b4ace52488c03a1eede3cf0dded2dd08fb9910160405180910390a2836001600160a01b03165f516020610f005f395f51905f52825f015485610a95576040518060400160405280601081526020016f3bb937b733afb83932b234b1ba34b7b760811b815250610ac1565b6040518060400160405280601281526020017131b7b93932b1ba2fb83932b234b1ba34b7b760711b8152505b604051610621929190610e72565b604051630d104bbb60e11b81526001600160a01b038381166004830152602482018390525f917f000000000000000000000000000000000000000000000000000000000000000090911690631a20977690604401602060405180830381865afa158015610b3e573d5f5f3e3d5ffd5b505050506040513d601f19601f82011682018060405250810190610b629190610ee4565b90505b92915050565b6001600160a01b0381165f90815260208190526040812054808203610b8e5750600a5b6064111592915050565b610bde6040518061012001604052805f81526020015f81526020015f81526020015f81526020015f81526020015f81526020015f81526020015f81526020015f81525090565b506001600160a01b03165f9081526020818152604091829020825161012081018452815481526001820154928101929092526002810154928201929092526003820154606082015260048201546080820152600582015460a0820152600682015460c0820152600782015460e082015260089091015461010082015290565b6001600160a01b0381165f908152602081905260408120548015610c815780610c84565b600a5b9392505050565b80356001600160a01b0381168114610ca1575f5ffd5b919050565b5f60208284031215610cb6575f5ffd5b610b6282610c8b565b5f5f5f5f60608587031215610cd2575f5ffd5b610cdb85610c8b565b935060208501359250604085013567ffffffffffffffff811115610cfd575f5ffd5b8501601f81018713610d0d575f5ffd5b803567ffffffffffffffff811115610d23575f5ffd5b876020828401011115610d34575f5ffd5b949793965060200194505050565b8015158114610d4f575f5ffd5b50565b5f5f60408385031215610d63575f5ffd5b610d6c83610c8b565b91506020830135610d7c81610d42565b809150509250929050565b5f5f5f60608486031215610d99575f5ffd5b610da284610c8b565b92506020840135610db281610d42565b929592945050506040919091013590565b5f5f60408385031215610dd4575f5ffd5b610ddd83610c8b565b946020939093013593505050565b634e487b7160e01b5f52601160045260245ffd5b5f60018201610e1057610e10610deb565b5060010190565b80820180821115610b6557610b65610deb565b83815260406020820152816040820152818360608301375f818301606090810191909152601f909201601f1916010192915050565b81810381811115610b6557610b65610deb565b828152604060208201525f82518060408401528060208501606085015e5f606082850101526060601f19601f8301168401019150509392505050565b5f82610ec857634e487b7160e01b5f52601260045260245ffd5b500490565b8082028115828204841417610b6557610b65610deb565b5f60208284031215610ef4575f5ffd5b8151610c8481610d4256fec17e77081800e4bec45161da763d23d62f41146fb2629ee32a8fea0765743a12a26469706673582212207fe2c1c63ceee9aa812ef1a3788ec5235121c3f4a54508538bd283ad402b9e6f64736f6c63430008210033","linkReferences":{}},"methodIdentifiers":{"BASE_REPUTATION()":"4f2b0d4a","MIN_REPUTATION_TO_CREATE_MARKET()":"b0b0555e","MIN_REPUTATION_TO_DISPUTE()":"ec1b3e89","addUpdater(address)":"43d24a5e","adjustReputation(address,uint256,string)":"28cee41a","admin()":"f851a440","canCreateMarket(address)":"9a51abf8","canDispute(address)":"07af4fb9","getAccuracy(address)":"783df30a","getReputation(address)":"9c89a0e2","getScore(address)":"d47875d0","hasVerifiedIdentity(address,uint256)":"98aae084","identityRegistry()":"134e18f4","recordDispute(address,bool)":"58d3b6dc","recordMarketCreation(address)":"0af00429","recordPrediction(address,bool,uint256)":"9743d7d4","removeUpdater(address)":"04b07a5e","reputationUpdaters(address)":"3050a73d","reputations(address)":"06fa15a7","setAdmin(address)":"704b6c02"},"id":6}