{"abi":[{"type":"function","name":"diamondCut","inputs":[{"name":"_diamondCut","type":"tuple[]","internalType":"struct IDiamondCut.FacetCut[]","components":[{"name":"facetAddress","type":"address","internalType":"address"},{"name":"action","type":"uint8","internalType":"enum IDiamondCut.FacetCutAction"},{"name":"functionSelectors","type":"bytes4[]","internalType":"bytes4[]"}]},{"name":"_init","type":"address","internalType":"address"},{"name":"_calldata","type":"bytes","internalType":"bytes"}],"outputs":[],"stateMutability":"nonpayable"},{"type":"event","name":"DiamondCut","inputs":[{"name":"_diamondCut","type":"tuple[]","indexed":false,"internalType":"struct IDiamondCut.FacetCut[]","components":[{"name":"facetAddress","type":"address","internalType":"address"},{"name":"action","type":"uint8","internalType":"enum IDiamondCut.FacetCutAction"},{"name":"functionSelectors","type":"bytes4[]","internalType":"bytes4[]"}]},{"name":"_init","type":"address","indexed":false,"internalType":"address"},{"name":"_calldata","type":"bytes","indexed":false,"internalType":"bytes"}],"anonymous":false},{"type":"event","name":"DiamondCut","inputs":[{"name":"_diamondCut","type":"tuple[]","indexed":false,"internalType":"struct IDiamondCut.FacetCut[]","components":[{"name":"facetAddress","type":"address","internalType":"address"},{"name":"action","type":"uint8","internalType":"enum IDiamondCut.FacetCutAction"},{"name":"functionSelectors","type":"bytes4[]","internalType":"bytes4[]"}]},{"name":"_init","type":"address","indexed":false,"internalType":"address"},{"name":"_calldata","type":"bytes","indexed":false,"internalType":"bytes"}],"anonymous":false}],"bytecode":{"object":"0x6080604052348015600e575f5ffd5b5061136a8061001c5f395ff3fe608060405234801561000f575f5ffd5b5060043610610029575f3560e01c80631f931c1c1461002d575b5f5ffd5b61004061003b366004610e7d565b610042565b005b61004a61009a565b6100936100578587610fbe565b8484848080601f0160208091040260200160405190810160405280939291908181526020018383808284375f9201919091525061011592505050565b5050505050565b5f5160206112f45f395f51905f52600401546001600160a01b031633146101135760405162461bcd60e51b815260206004820152602260248201527f4c69624469616d6f6e643a204d75737420626520636f6e7472616374206f776e60448201526132b960f11b60648201526084015b60405180910390fd5b565b5f5b83518110156102c6575f848281518110610133576101336110f9565b60200260200101516020015190505f60028111156101535761015361110d565b8160028111156101655761016561110d565b036101b2576101ad85838151811061017f5761017f6110f9565b60200260200101515f015186848151811061019c5761019c6110f9565b602002602001015160400151610311565b6102bd565b60018160028111156101c6576101c661110d565b0361020e576101ad8583815181106101e0576101e06110f9565b60200260200101515f01518684815181106101fd576101fd6110f9565b6020026020010151604001516104ed565b60028160028111156102225761022261110d565b0361026a576101ad85838151811061023c5761023c6110f9565b60200260200101515f0151868481518110610259576102596110f9565b6020026020010151604001516106ec565b60405162461bcd60e51b815260206004820152602260248201527f4c69624469616d6f6e643a20496e76616c69642046616365744375744163746960448201526137b760f11b606482015260840161010a565b50600101610117565b507f8faa70878671ccd212d20771b795c50af8fd3ff6cf27f4bde57e5d4de0aeb6738383836040516102fa9392919061114f565b60405180910390a161030c8282610832565b505050565b5f8151116103615760405162461bcd60e51b815260206004820152601f60248201527f4c69624469616d6f6e643a204e6f2073656c6563746f727320746f2061646400604482015260640161010a565b5f5160206112f45f395f51905f526001600160a01b0383166103d85760405162461bcd60e51b815260206004820152602a60248201527f4c69624469616d6f6e643a204164642066616365742063616e6e6f74206265206044820152696164647265737328302960b01b606482015260840161010a565b6001600160a01b0383165f908152600182016020526040812054906001600160601b038216900361040d5761040d8285610948565b5f5b8351811015610093575f84828151811061042b5761042b6110f9565b6020908102919091018101516001600160e01b031981165f908152918690526040909120549091506001600160a01b031680156104c65760405162461bcd60e51b815260206004820152603360248201527f4c69624469616d6f6e643a2043616e6e6f74206164642066756e6374696f6e206044820152727468617420616c72656164792065786973747360681b606482015260840161010a565b6104d28583868a6109b1565b836104dc8161126d565b9450506001909201915061040f9050565b5f8151116105495760405162461bcd60e51b815260206004820152602360248201527f4c69624469616d6f6e643a204e6f2073656c6563746f727320746f207265706c60448201526261636560e81b606482015260840161010a565b5f5160206112f45f395f51905f526001600160a01b0383166105c45760405162461bcd60e51b815260206004820152602e60248201527f4c69624469616d6f6e643a205265706c6163652066616365742063616e6e6f7460448201526d206265206164647265737328302960901b606482015260840161010a565b6001600160a01b0383165f908152600182016020526040812054906001600160601b03821690036105f9576105f98285610948565b5f5b8351811015610093575f848281518110610617576106176110f9565b6020908102919091018101516001600160e01b031981165f908152918690526040909120549091506001600160a01b0390811690871681036106ba5760405162461bcd60e51b815260206004820152603660248201527f4c69624469616d6f6e643a2043616e6e6f74207265706c6163652066756e637460448201527534b7b7103bb4ba341039b0b6b290333ab731ba34b7b760511b606482015260840161010a565b6106c5858284610a50565b6106d18583868a6109b1565b836106db8161126d565b945050600190920191506105fb9050565b5f8151116107475760405162461bcd60e51b815260206004820152602260248201527f4c69624469616d6f6e643a204e6f2073656c6563746f727320746f2072656d6f604482015261766560f01b606482015260840161010a565b5f5160206112f45f395f51905f526001600160a01b038316156107c85760405162461bcd60e51b815260206004820152603360248201527f4c69624469616d6f6e643a2052656d6f76652066616365742061646472657373604482015272206d757374206265206164647265737328302960681b606482015260840161010a565b5f5b825181101561082c575f8382815181106107e6576107e66110f9565b6020908102919091018101516001600160e01b031981165f908152918590526040909120549091506001600160a01b0316610822848284610a50565b50506001016107ca565b50505050565b6001600160a01b038216610844575050565b610883826040518060400160405280601d81526020017f4c69624469616d6f6e643a205f696e697420686173206e6f20636f6465000000815250610dfc565b5f5f836001600160a01b03168360405161089d9190611297565b5f60405180830381855af49150503d805f81146108d5576040519150601f19603f3d011682016040523d82523d5f602084013e6108da565b606091505b50915091508161082c578051156108f45780518082602001fd5b60405162461bcd60e51b815260206004820152602360248201527f4c69624469616d6f6e643a205f696e69742066756e6374696f6e2072657665726044820152621d195960ea1b606482015260840161010a565b61096a8160405180606001604052806021815260200161131460219139610dfc565b6002820180546001600160a01b039092165f8181526001948501602090815260408220860185905594840183559182529290200180546001600160a01b0319169091179055565b6001600160e01b031983165f8181526020868152604080832080546001600160601b03909716600160a01b026001600160a01b0397881617815594909516808352600180890183529583208054968701815583528183206008870401805460e09890981c60046007909816979097026101000a96870263ffffffff9097021990971695909517909555529290915281546001600160a01b031916179055565b6001600160a01b038216610ac55760405162461bcd60e51b815260206004820152603660248201527f4c69624469616d6f6e643a2043616e6e6f742072656d6f76652066756e6374696044820152751bdb881d1a185d08191bd95cc81b9bdd08195e1a5cdd60521b606482015260840161010a565b306001600160a01b03831603610b325760405162461bcd60e51b815260206004820152602c60248201527f4c69624469616d6f6e643a2043616e6e6f742072656d6f766520696d6d75746160448201526b31363290333ab731ba34b7b760a11b606482015260840161010a565b6001600160e01b031981165f90815260208481526040808320546001600160a01b0386168452600180880190935290832054600160a01b9091046001600160601b03169291610b80916112ad565b9050808214610c6f576001600160a01b0384165f9081526001860160205260408120805483908110610bb457610bb46110f9565b5f91825260208083206008830401546001600160a01b038916845260018a019091526040909220805460079092166004026101000a90920460e01b925082919085908110610c0457610c046110f9565b5f91825260208083206008830401805463ffffffff60079094166004026101000a938402191660e09590951c929092029390931790556001600160e01b03199290921682528690526040902080546001600160a01b0316600160a01b6001600160601b038516021790555b6001600160a01b0384165f9081526001860160205260409020805480610c9757610c976112c6565b5f828152602080822060085f1990940193840401805463ffffffff600460078716026101000a0219169055919092556001600160e01b031985168252869052604081208190558190036100935760028501545f90610cf7906001906112ad565b6001600160a01b0386165f908152600180890160205260409091200154909150808214610da2575f876002018381548110610d3457610d346110f9565b5f918252602090912001546002890180546001600160a01b039092169250829184908110610d6457610d646110f9565b5f91825260208083209190910180546001600160a01b0319166001600160a01b03948516179055929091168152600189810190925260409020018190555b86600201805480610db557610db56112c6565b5f828152602080822083015f1990810180546001600160a01b03191690559092019092556001600160a01b0388168252600189810190915260408220015550505050505050565b813b818161082c5760405162461bcd60e51b815260040161010a91906112da565b80356001600160a01b0381168114610e33575f5ffd5b919050565b5f5f83601f840112610e48575f5ffd5b50813567ffffffffffffffff811115610e5f575f5ffd5b602083019150836020828501011115610e76575f5ffd5b9250929050565b5f5f5f5f5f60608688031215610e91575f5ffd5b853567ffffffffffffffff811115610ea7575f5ffd5b8601601f81018813610eb7575f5ffd5b803567ffffffffffffffff811115610ecd575f5ffd5b8860208260051b8401011115610ee1575f5ffd5b602091820196509450610ef5908701610e1d565b9250604086013567ffffffffffffffff811115610f10575f5ffd5b610f1c88828901610e38565b969995985093965092949392505050565b634e487b7160e01b5f52604160045260245ffd5b6040516060810167ffffffffffffffff81118282101715610f6457610f64610f2d565b60405290565b604051601f8201601f1916810167ffffffffffffffff81118282101715610f9357610f93610f2d565b604052919050565b5f67ffffffffffffffff821115610fb457610fb4610f2d565b5060051b60200190565b5f610fd0610fcb84610f9b565b610f6a565b8381526020810190600585901b840136811115610feb575f5ffd5b845b818110156110ee57803567ffffffffffffffff81111561100b575f5ffd5b8601606036829003121561101d575f5ffd5b611025610f41565b61102e82610e1d565b8152602082013560038110611041575f5ffd5b6020820152604082013567ffffffffffffffff81111561105f575f5ffd5b919091019036601f830112611072575f5ffd5b8135611080610fcb82610f9b565b8082825260208201915060208360051b8601019250368311156110a1575f5ffd5b6020850194505b828510156110d85784356001600160e01b0319811681146110c7575f5ffd5b8252602094850194909101906110a8565b6040840152505085525060209384019301610fed565b509095945050505050565b634e487b7160e01b5f52603260045260245ffd5b634e487b7160e01b5f52602160045260245ffd5b5f81518084528060208401602086015e5f602082860101526020601f19601f83011685010191505092915050565b5f606082016060835280865180835260808501915060808160051b8601019250602088015f5b8281101561122a57868503607f19018452815180516001600160a01b0316865260208101516060870190600381106111bb57634e487b7160e01b5f52602160045260245ffd5b8060208901525060408201519150606060408801528082518083526080890191506020840193505f92505b808310156112125783516001600160e01b031916825260209384019360019390930192909101906111e6565b50965050506020938401939190910190600101611175565b5050506001600160a01b038616602085015250828103604084015261124f8185611121565b9695505050505050565b634e487b7160e01b5f52601160045260245ffd5b5f6001600160601b0382166001600160601b03810361128e5761128e611259565b60010192915050565b5f82518060208501845e5f920191825250919050565b818103818111156112c0576112c0611259565b92915050565b634e487b7160e01b5f52603160045260245ffd5b602081525f6112ec6020830184611121565b939250505056fec8fcad8db84d3cc18b4c41d551ea0ee66dd599cde068d998e57d5e09332c131c4c69624469616d6f6e643a204e657720666163657420686173206e6f20636f6465a2646970667358221220ca324da8085c6e4acc69f31cd0fa78a93438af5c291209a20564ae6e68dd29d064736f6c63430008210033","linkReferences":{}},"methodIdentifiers":{"diamondCut((address,uint8,bytes4[])[],address,bytes)":"1f931c1c"},"id":1}